{
  "_format": "hh-sol-artifact-1",
  "contractName": "FoodSourceFactory",
  "sourceName": "contracts/foodSourceFactory.sol",
  "abi": [
    {
      "inputs": [
        {
          "internalType": "address",
          "name": "_foodSourceContract",
          "type": "address"
        }
      ],
      "stateMutability": "nonpayable",
      "type": "constructor"
    },
    {
      "inputs": [
        {
          "internalType": "string[]",
          "name": "_uris",
          "type": "string[]"
        },
        {
          "internalType": "uint256[]",
          "name": "_validMonths",
          "type": "uint256[]"
        }
      ],
      "name": "createFoodSource",
      "outputs": [],
      "stateMutability": "nonpayable",
      "type": "function"
    }
  ],
  "bytecode": "0x608060405234801561001057600080fd5b506040516108bb3803806108bb833981810160405281019061003291906100db565b806000806101000a81548173ffffffffffffffffffffffffffffffffffffffff021916908373ffffffffffffffffffffffffffffffffffffffff16021790555050610108565b600080fd5b600073ffffffffffffffffffffffffffffffffffffffff82169050919050565b60006100a88261007d565b9050919050565b6100b88161009d565b81146100c357600080fd5b50565b6000815190506100d5816100af565b92915050565b6000602082840312156100f1576100f0610078565b5b60006100ff848285016100c6565b91505092915050565b6107a4806101176000396000f3fe608060405234801561001057600080fd5b506004361061002b5760003560e01c80633b9185ec14610030575b600080fd5b61004a6004803603810190610045919061042f565b61004c565b005b60008060009054906101000a900473ffffffffffffffffffffffffffffffffffffffff1673ffffffffffffffffffffffffffffffffffffffff16638a6054363085856040518463ffffffff1660e01b81526004016100ac939291906106e7565b6020604051808303816000875af11580156100cb573d6000803e3d6000fd5b505050506040513d601f19601f820116820180604052508101906100ef9190610741565b9050505050565b6000604051905090565b600080fd5b600080fd5b600080fd5b6000601f19601f8301169050919050565b7f4e487b7100000000000000000000000000000000000000000000000000000000600052604160045260246000fd5b6101588261010f565b810181811067ffffffffffffffff8211171561017757610176610120565b5b80604052505050565b600061018a6100f6565b9050610196828261014f565b919050565b600067ffffffffffffffff8211156101b6576101b5610120565b5b602082029050602081019050919050565b600080fd5b600080fd5b600067ffffffffffffffff8211156101ec576101eb610120565b5b6101f58261010f565b9050602081019050919050565b82818337600083830152505050565b600061022461021f846101d1565b610180565b9050828152602081018484840111156102405761023f6101cc565b5b61024b848285610202565b509392505050565b600082601f8301126102685761026761010a565b5b8135610278848260208601610211565b91505092915050565b600061029461028f8461019b565b610180565b905080838252602082019050602084028301858111156102b7576102b66101c7565b5b835b818110156102fe57803567ffffffffffffffff8111156102dc576102db61010a565b5b8086016102e98982610253565b855260208501945050506020810190506102b9565b5050509392505050565b600082601f83011261031d5761031c61010a565b5b813561032d848260208601610281565b91505092915050565b600067ffffffffffffffff82111561035157610350610120565b5b602082029050602081019050919050565b6000819050919050565b61037581610362565b811461038057600080fd5b50565b6000813590506103928161036c565b92915050565b60006103ab6103a684610336565b610180565b905080838252602082019050602084028301858111156103ce576103cd6101c7565b5b835b818110156103f757806103e38882610383565b8452602084019350506020810190506103d0565b5050509392505050565b600082601f8301126104165761041561010a565b5b8135610426848260208601610398565b91505092915050565b6000806040838503121561044657610445610100565b5b600083013567ffffffffffffffff81111561046457610463610105565b5b61047085828601610308565b925050602083013567ffffffffffffffff81111561049157610490610105565b5b61049d85828601610401565b9150509250929050565b600073ffffffffffffffffffffffffffffffffffffffff82169050919050565b60006104d2826104a7565b9050919050565b6104e2816104c7565b82525050565b600081519050919050565b600082825260208201905092915050565b6000819050602082019050919050565b600081519050919050565b600082825260208201905092915050565b60005b8381101561054e578082015181840152602081019050610533565b60008484015250505050565b600061056582610514565b61056f818561051f565b935061057f818560208601610530565b6105888161010f565b840191505092915050565b600061059f838361055a565b905092915050565b6000602082019050919050565b60006105bf826104e8565b6105c981856104f3565b9350836020820285016105db85610504565b8060005b8581101561061757848403895281516105f88582610593565b9450610603836105a7565b925060208a019950506001810190506105df565b50829750879550505050505092915050565b600081519050919050565b600082825260208201905092915050565b6000819050602082019050919050565b61065e81610362565b82525050565b60006106708383610655565b60208301905092915050565b6000602082019050919050565b600061069482610629565b61069e8185610634565b93506106a983610645565b8060005b838110156106da5781516106c18882610664565b97506106cc8361067c565b9250506001810190506106ad565b5085935050505092915050565b60006060820190506106fc60008301866104d9565b818103602083015261070e81856105b4565b905081810360408301526107228184610689565b9050949350505050565b60008151905061073b8161036c565b92915050565b60006020828403121561075757610756610100565b5b60006107658482850161072c565b9150509291505056fea26469706673582212208ff66fbcfa4fa1e20f844c351431d2ba4ae7e4ec36856bdefd0ca7518188bc2e64736f6c63430008110033",
  "linkReferences": {},
  "deployedLinkReferences": {}
}