{
  "_format": "hh-sol-artifact-1",
  "contractName": "FoodSource",
  "sourceName": "contracts/foodSource.sol",
  "abi": [
    {
      "inputs": [],
      "stateMutability": "nonpayable",
      "type": "constructor"
    },
    {
      "anonymous": false,
      "inputs": [
        {
          "indexed": true,
          "internalType": "address",
          "name": "owner",
          "type": "address"
        },
        {
          "indexed": true,
          "internalType": "address",
          "name": "approved",
          "type": "address"
        },
        {
          "indexed": true,
          "internalType": "uint256",
          "name": "tokenId",
          "type": "uint256"
        }
      ],
      "name": "Approval",
      "type": "event"
    },
    {
      "anonymous": false,
      "inputs": [
        {
          "indexed": true,
          "internalType": "address",
          "name": "owner",
          "type": "address"
        },
        {
          "indexed": true,
          "internalType": "address",
          "name": "operator",
          "type": "address"
        },
        {
          "indexed": false,
          "internalType": "bool",
          "name": "approved",
          "type": "bool"
        }
      ],
      "name": "ApprovalForAll",
      "type": "event"
    },
    {
      "anonymous": false,
      "inputs": [
        {
          "indexed": true,
          "internalType": "address",
          "name": "previousOwner",
          "type": "address"
        },
        {
          "indexed": true,
          "internalType": "address",
          "name": "newOwner",
          "type": "address"
        }
      ],
      "name": "OwnershipTransferred",
      "type": "event"
    },
    {
      "anonymous": false,
      "inputs": [
        {
          "indexed": true,
          "internalType": "address",
          "name": "from",
          "type": "address"
        },
        {
          "indexed": true,
          "internalType": "address",
          "name": "to",
          "type": "address"
        },
        {
          "indexed": true,
          "internalType": "uint256",
          "name": "tokenId",
          "type": "uint256"
        }
      ],
      "name": "Transfer",
      "type": "event"
    },
    {
      "inputs": [
        {
          "internalType": "address",
          "name": "to",
          "type": "address"
        },
        {
          "internalType": "uint256",
          "name": "tokenId",
          "type": "uint256"
        }
      ],
      "name": "approve",
      "outputs": [],
      "stateMutability": "nonpayable",
      "type": "function"
    },
    {
      "inputs": [
        {
          "internalType": "address",
          "name": "owner",
          "type": "address"
        }
      ],
      "name": "balanceOf",
      "outputs": [
        {
          "internalType": "uint256",
          "name": "",
          "type": "uint256"
        }
      ],
      "stateMutability": "view",
      "type": "function"
    },
    {
      "inputs": [
        {
          "internalType": "uint256",
          "name": "tokenId",
          "type": "uint256"
        }
      ],
      "name": "getApproved",
      "outputs": [
        {
          "internalType": "address",
          "name": "",
          "type": "address"
        }
      ],
      "stateMutability": "view",
      "type": "function"
    },
    {
      "inputs": [
        {
          "internalType": "uint256",
          "name": "",
          "type": "uint256"
        },
        {
          "internalType": "uint256",
          "name": "",
          "type": "uint256"
        }
      ],
      "name": "idToMonths",
      "outputs": [
        {
          "internalType": "uint256",
          "name": "",
          "type": "uint256"
        }
      ],
      "stateMutability": "view",
      "type": "function"
    },
    {
      "inputs": [
        {
          "internalType": "uint256",
          "name": "",
          "type": "uint256"
        },
        {
          "internalType": "uint256",
          "name": "",
          "type": "uint256"
        }
      ],
      "name": "idToUri",
      "outputs": [
        {
          "internalType": "string",
          "name": "",
          "type": "string"
        }
      ],
      "stateMutability": "view",
      "type": "function"
    },
    {
      "inputs": [
        {
          "internalType": "address",
          "name": "owner",
          "type": "address"
        },
        {
          "internalType": "address",
          "name": "operator",
          "type": "address"
        }
      ],
      "name": "isApprovedForAll",
      "outputs": [
        {
          "internalType": "bool",
          "name": "",
          "type": "bool"
        }
      ],
      "stateMutability": "view",
      "type": "function"
    },
    {
      "inputs": [
        {
          "internalType": "address",
          "name": "_to",
          "type": "address"
        },
        {
          "internalType": "string[]",
          "name": "_uris",
          "type": "string[]"
        },
        {
          "internalType": "uint256[]",
          "name": "_validMonths",
          "type": "uint256[]"
        }
      ],
      "name": "mint",
      "outputs": [
        {
          "internalType": "uint256",
          "name": "",
          "type": "uint256"
        }
      ],
      "stateMutability": "nonpayable",
      "type": "function"
    },
    {
      "inputs": [],
      "name": "name",
      "outputs": [
        {
          "internalType": "string",
          "name": "",
          "type": "string"
        }
      ],
      "stateMutability": "view",
      "type": "function"
    },
    {
      "inputs": [],
      "name": "owner",
      "outputs": [
        {
          "internalType": "address",
          "name": "",
          "type": "address"
        }
      ],
      "stateMutability": "view",
      "type": "function"
    },
    {
      "inputs": [
        {
          "internalType": "uint256",
          "name": "tokenId",
          "type": "uint256"
        }
      ],
      "name": "ownerOf",
      "outputs": [
        {
          "internalType": "address",
          "name": "",
          "type": "address"
        }
      ],
      "stateMutability": "view",
      "type": "function"
    },
    {
      "inputs": [],
      "name": "renounceOwnership",
      "outputs": [],
      "stateMutability": "nonpayable",
      "type": "function"
    },
    {
      "inputs": [
        {
          "internalType": "address",
          "name": "from",
          "type": "address"
        },
        {
          "internalType": "address",
          "name": "to",
          "type": "address"
        },
        {
          "internalType": "uint256",
          "name": "tokenId",
          "type": "uint256"
        }
      ],
      "name": "safeTransferFrom",
      "outputs": [],
      "stateMutability": "nonpayable",
      "type": "function"
    },
    {
      "inputs": [
        {
          "internalType": "address",
          "name": "from",
          "type": "address"
        },
        {
          "internalType": "address",
          "name": "to",
          "type": "address"
        },
        {
          "internalType": "uint256",
          "name": "tokenId",
          "type": "uint256"
        },
        {
          "internalType": "bytes",
          "name": "data",
          "type": "bytes"
        }
      ],
      "name": "safeTransferFrom",
      "outputs": [],
      "stateMutability": "nonpayable",
      "type": "function"
    },
    {
      "inputs": [
        {
          "internalType": "address",
          "name": "operator",
          "type": "address"
        },
        {
          "internalType": "bool",
          "name": "approved",
          "type": "bool"
        }
      ],
      "name": "setApprovalForAll",
      "outputs": [],
      "stateMutability": "nonpayable",
      "type": "function"
    },
    {
      "inputs": [
        {
          "internalType": "bytes4",
          "name": "interfaceId",
          "type": "bytes4"
        }
      ],
      "name": "supportsInterface",
      "outputs": [
        {
          "internalType": "bool",
          "name": "",
          "type": "bool"
        }
      ],
      "stateMutability": "view",
      "type": "function"
    },
    {
      "inputs": [],
      "name": "symbol",
      "outputs": [
        {
          "internalType": "string",
          "name": "",
          "type": "string"
        }
      ],
      "stateMutability": "view",
      "type": "function"
    },
    {
      "inputs": [
        {
          "internalType": "uint256",
          "name": "tokenId",
          "type": "uint256"
        }
      ],
      "name": "tokenURI",
      "outputs": [
        {
          "internalType": "string",
          "name": "result",
          "type": "string"
        }
      ],
      "stateMutability": "view",
      "type": "function"
    },
    {
      "inputs": [
        {
          "internalType": "address",
          "name": "from",
          "type": "address"
        },
        {
          "internalType": "address",
          "name": "to",
          "type": "address"
        },
        {
          "internalType": "uint256",
          "name": "tokenId",
          "type": "uint256"
        }
      ],
      "name": "transferFrom",
      "outputs": [],
      "stateMutability": "nonpayable",
      "type": "function"
    },
    {
      "inputs": [
        {
          "internalType": "address",
          "name": "newOwner",
          "type": "address"
        }
      ],
      "name": "transferOwnership",
      "outputs": [],
      "stateMutability": "nonpayable",
      "type": "function"
    }
  ],
  "bytecode": "0x60806040523480156200001157600080fd5b506040518060400160405280600a81526020017f466f6f64536f75726365000000000000000000000000000000000000000000008152506040518060400160405280600281526020017f465300000000000000000000000000000000000000000000000000000000000081525081600090816200008f91906200043f565b508060019081620000a191906200043f565b505050620000c4620000b8620000e160201b60201c565b620000e960201b60201c565b620000db6008620001af60201b62000f271760201c565b62000526565b600033905090565b6000600760009054906101000a900473ffffffffffffffffffffffffffffffffffffffff16905081600760006101000a81548173ffffffffffffffffffffffffffffffffffffffff021916908373ffffffffffffffffffffffffffffffffffffffff1602179055508173ffffffffffffffffffffffffffffffffffffffff168173ffffffffffffffffffffffffffffffffffffffff167f8be0079c531659141344cd1fd0a4f28419497f9722a3daafe3b4186f6b6457e060405160405180910390a35050565b6001816000016000828254019250508190555050565b600081519050919050565b7f4e487b7100000000000000000000000000000000000000000000000000000000600052604160045260246000fd5b7f4e487b7100000000000000000000000000000000000000000000000000000000600052602260045260246000fd5b600060028204905060018216806200024757607f821691505b6020821081036200025d576200025c620001ff565b5b50919050565b60008190508160005260206000209050919050565b60006020601f8301049050919050565b600082821b905092915050565b600060088302620002c77fffffffffffffffffffffffffffffffffffffffffffffffffffffffffffffffff8262000288565b620002d3868362000288565b95508019841693508086168417925050509392505050565b6000819050919050565b6000819050919050565b6000620003206200031a6200031484620002eb565b620002f5565b620002eb565b9050919050565b6000819050919050565b6200033c83620002ff565b620003546200034b8262000327565b84845462000295565b825550505050565b600090565b6200036b6200035c565b6200037881848462000331565b505050565b5b81811015620003a0576200039460008262000361565b6001810190506200037e565b5050565b601f821115620003ef57620003b98162000263565b620003c48462000278565b81016020851015620003d4578190505b620003ec620003e38562000278565b8301826200037d565b50505b505050565b600082821c905092915050565b60006200041460001984600802620003f4565b1980831691505092915050565b60006200042f838362000401565b9150826002028217905092915050565b6200044a82620001c5565b67ffffffffffffffff811115620004665762000465620001d0565b5b6200047282546200022e565b6200047f828285620003a4565b600060209050601f831160018114620004b75760008415620004a2578287015190505b620004ae858262000421565b8655506200051e565b601f198416620004c78662000263565b60005b82811015620004f157848901518255600182019150602085019450602081019050620004ca565b868310156200051157848901516200050d601f89168262000401565b8355505b6001600288020188555050505b505050505050565b61327b80620005366000396000f3fe608060405234801561001057600080fd5b50600436106101215760003560e01c806370a08231116100ad578063a22cb46511610071578063a22cb4651461032e578063b88d4fde1461034a578063c87b56dd14610366578063e985e9c514610396578063f2fde38b146103c657610121565b806370a0823114610288578063715018a6146102b85780638a605436146102c25780638da5cb5b146102f257806395d89b411461031057610121565b806323b872dd116100f457806323b872dd146101c057806327c44842146101dc57806342842e0e1461020c57806343eb12d8146102285780636352211e1461025857610121565b806301ffc9a71461012657806306fdde0314610156578063081812fc14610174578063095ea7b3146101a4575b600080fd5b610140600480360381019061013b9190611cdc565b6103e2565b60405161014d9190611d24565b60405180910390f35b61015e6104c4565b60405161016b9190611dcf565b60405180910390f35b61018e60048036038101906101899190611e27565b610556565b60405161019b9190611e95565b60405180910390f35b6101be60048036038101906101b99190611edc565b61059c565b005b6101da60048036038101906101d59190611f1c565b6106b3565b005b6101f660048036038101906101f19190611f6f565b610713565b6040516102039190611dcf565b60405180910390f35b61022660048036038101906102219190611f1c565b6107cc565b005b610242600480360381019061023d9190611f6f565b6107ec565b60405161024f9190611fbe565b60405180910390f35b610272600480360381019061026d9190611e27565b61081d565b60405161027f9190611e95565b60405180910390f35b6102a2600480360381019061029d9190611fd9565b6108ce565b6040516102af9190611fbe565b60405180910390f35b6102c0610985565b005b6102dc60048036038101906102d791906122e4565b610999565b6040516102e99190611fbe565b60405180910390f35b6102fa610aa1565b6040516103079190611e95565b60405180910390f35b610318610acb565b6040516103259190611dcf565b60405180910390f35b6103486004803603810190610343919061239b565b610b5d565b005b610364600480360381019061035f919061247c565b610b73565b005b610380600480360381019061037b9190611e27565b610bd5565b60405161038d9190611dcf565b60405180910390f35b6103b060048036038101906103ab91906124ff565b610e10565b6040516103bd9190611d24565b60405180910390f35b6103e060048036038101906103db9190611fd9565b610ea4565b005b60007f80ac58cd000000000000000000000000000000000000000000000000000000007bffffffffffffffffffffffffffffffffffffffffffffffffffffffff1916827bffffffffffffffffffffffffffffffffffffffffffffffffffffffff191614806104ad57507f5b5e139f000000000000000000000000000000000000000000000000000000007bffffffffffffffffffffffffffffffffffffffffffffffffffffffff1916827bffffffffffffffffffffffffffffffffffffffffffffffffffffffff1916145b806104bd57506104bc82610f3d565b5b9050919050565b6060600080546104d39061256e565b80601f01602080910402602001604051908101604052809291908181526020018280546104ff9061256e565b801561054c5780601f106105215761010080835404028352916020019161054c565b820191906000526020600020905b81548152906001019060200180831161052f57829003601f168201915b5050505050905090565b600061056182610fa7565b6004600083815260200190815260200160002060009054906101000a900473ffffffffffffffffffffffffffffffffffffffff169050919050565b60006105a78261081d565b90508073ffffffffffffffffffffffffffffffffffffffff168373ffffffffffffffffffffffffffffffffffffffff1603610617576040517f08c379a000000000000000000000000000000000000000000000000000000000815260040161060e90612611565b60405180910390fd5b8073ffffffffffffffffffffffffffffffffffffffff16610636610ff2565b73ffffffffffffffffffffffffffffffffffffffff16148061066557506106648161065f610ff2565b610e10565b5b6106a4576040517f08c379a000000000000000000000000000000000000000000000000000000000815260040161069b906126a3565b60405180910390fd5b6106ae8383610ffa565b505050565b6106c46106be610ff2565b826110b3565b610703576040517f08c379a00000000000000000000000000000000000000000000000000000000081526004016106fa90612735565b60405180910390fd5b61070e838383611148565b505050565b6009602052816000526040600020818154811061072f57600080fd5b9060005260206000200160009150915050805461074b9061256e565b80601f01602080910402602001604051908101604052809291908181526020018280546107779061256e565b80156107c45780601f10610799576101008083540402835291602001916107c4565b820191906000526020600020905b8154815290600101906020018083116107a757829003601f168201915b505050505081565b6107e783838360405180602001604052806000815250610b73565b505050565b600a602052816000526040600020818154811061080857600080fd5b90600052602060002001600091509150505481565b6000806002600084815260200190815260200160002060009054906101000a900473ffffffffffffffffffffffffffffffffffffffff169050600073ffffffffffffffffffffffffffffffffffffffff168173ffffffffffffffffffffffffffffffffffffffff16036108c5576040517f08c379a00000000000000000000000000000000000000000000000000000000081526004016108bc906127a1565b60405180910390fd5b80915050919050565b60008073ffffffffffffffffffffffffffffffffffffffff168273ffffffffffffffffffffffffffffffffffffffff160361093e576040517f08c379a000000000000000000000000000000000000000000000000000000000815260040161093590612833565b60405180910390fd5b600360008373ffffffffffffffffffffffffffffffffffffffff1673ffffffffffffffffffffffffffffffffffffffff168152602001908152602001600020549050919050565b61098d6113ae565b610997600061142c565b565b6000806109a660086114f2565b90506109b28582611500565b836000815181106109c6576109c5612853565b5b6020026020010151600960008381526020019081526020016000206000815481106109f4576109f3612853565b5b906000526020600020019081610a0a9190612a2e565b5083600181518110610a1f57610a1e612853565b5b602002602001015160096000838152602001908152602001600020600181548110610a4d57610a4c612853565b5b906000526020600020019081610a639190612a2e565b5082600a60008381526020019081526020016000209080519060200190610a8b929190611c06565b50610a966008610f27565b809150509392505050565b6000600760009054906101000a900473ffffffffffffffffffffffffffffffffffffffff16905090565b606060018054610ada9061256e565b80601f0160208091040260200160405190810160405280929190818152602001828054610b069061256e565b8015610b535780601f10610b2857610100808354040283529160200191610b53565b820191906000526020600020905b815481529060010190602001808311610b3657829003601f168201915b5050505050905090565b610b6f610b68610ff2565b83836116d9565b5050565b610b84610b7e610ff2565b836110b3565b610bc3576040517f08c379a0000000000000000000000000000000000000000000000000000000008152600401610bba90612735565b60405180910390fd5b610bcf84848484611845565b50505050565b60606000610be16118a1565b90506000600a6000858152602001908152602001600020805480602002602001604051908101604052809291908181526020018280548015610c4257602002820191906000526020600020905b815481526020019060010190808311610c2e575b5050505050905060008151905060005b81811015610d425783838281518110610c6e57610c6d612853565b5b602002602001015103610d375760096000878152602001908152602001600020600081548110610ca157610ca0612853565b5b906000526020600020018054610cb69061256e565b80601f0160208091040260200160405190810160405280929190818152602001828054610ce29061256e565b8015610d2f5780601f10610d0457610100808354040283529160200191610d2f565b820191906000526020600020905b815481529060010190602001808311610d1257829003601f168201915b505050505094505b806001019050610c52565b506000845103610e085760096000868152602001908152602001600020600181548110610d7257610d71612853565b5b906000526020600020018054610d879061256e565b80601f0160208091040260200160405190810160405280929190818152602001828054610db39061256e565b8015610e005780601f10610dd557610100808354040283529160200191610e00565b820191906000526020600020905b815481529060010190602001808311610de357829003601f168201915b505050505093505b505050919050565b6000600560008473ffffffffffffffffffffffffffffffffffffffff1673ffffffffffffffffffffffffffffffffffffffff16815260200190815260200160002060008373ffffffffffffffffffffffffffffffffffffffff1673ffffffffffffffffffffffffffffffffffffffff16815260200190815260200160002060009054906101000a900460ff16905092915050565b610eac6113ae565b600073ffffffffffffffffffffffffffffffffffffffff168173ffffffffffffffffffffffffffffffffffffffff1603610f1b576040517f08c379a0000000000000000000000000000000000000000000000000000000008152600401610f1290612b72565b60405180910390fd5b610f248161142c565b50565b6001816000016000828254019250508190555050565b60007f01ffc9a7000000000000000000000000000000000000000000000000000000007bffffffffffffffffffffffffffffffffffffffffffffffffffffffff1916827bffffffffffffffffffffffffffffffffffffffffffffffffffffffff1916149050919050565b610fb0816119e6565b610fef576040517f08c379a0000000000000000000000000000000000000000000000000000000008152600401610fe6906127a1565b60405180910390fd5b50565b600033905090565b816004600083815260200190815260200160002060006101000a81548173ffffffffffffffffffffffffffffffffffffffff021916908373ffffffffffffffffffffffffffffffffffffffff160217905550808273ffffffffffffffffffffffffffffffffffffffff1661106d8361081d565b73ffffffffffffffffffffffffffffffffffffffff167f8c5be1e5ebec7d5bd14f71427d1e84f3dd0314c0f7b2291e5b200ac8c7c3b92560405160405180910390a45050565b6000806110bf8361081d565b90508073ffffffffffffffffffffffffffffffffffffffff168473ffffffffffffffffffffffffffffffffffffffff16148061110157506111008185610e10565b5b8061113f57508373ffffffffffffffffffffffffffffffffffffffff1661112784610556565b73ffffffffffffffffffffffffffffffffffffffff16145b91505092915050565b8273ffffffffffffffffffffffffffffffffffffffff166111688261081d565b73ffffffffffffffffffffffffffffffffffffffff16146111be576040517f08c379a00000000000000000000000000000000000000000000000000000000081526004016111b590612c04565b60405180910390fd5b600073ffffffffffffffffffffffffffffffffffffffff168273ffffffffffffffffffffffffffffffffffffffff160361122d576040517f08c379a000000000000000000000000000000000000000000000000000000000815260040161122490612c96565b60405180910390fd5b611238838383611a52565b611243600082610ffa565b6001600360008573ffffffffffffffffffffffffffffffffffffffff1673ffffffffffffffffffffffffffffffffffffffff16815260200190815260200160002060008282546112939190612ce5565b925050819055506001600360008473ffffffffffffffffffffffffffffffffffffffff1673ffffffffffffffffffffffffffffffffffffffff16815260200190815260200160002060008282546112ea9190612d19565b92505081905550816002600083815260200190815260200160002060006101000a81548173ffffffffffffffffffffffffffffffffffffffff021916908373ffffffffffffffffffffffffffffffffffffffff160217905550808273ffffffffffffffffffffffffffffffffffffffff168473ffffffffffffffffffffffffffffffffffffffff167fddf252ad1be2c89b69c2b068fc378daa952ba7f163c4a11628f55a4df523b3ef60405160405180910390a46113a9838383611a57565b505050565b6113b6610ff2565b73ffffffffffffffffffffffffffffffffffffffff166113d4610aa1565b73ffffffffffffffffffffffffffffffffffffffff161461142a576040517f08c379a000000000000000000000000000000000000000000000000000000000815260040161142190612d99565b60405180910390fd5b565b6000600760009054906101000a900473ffffffffffffffffffffffffffffffffffffffff16905081600760006101000a81548173ffffffffffffffffffffffffffffffffffffffff021916908373ffffffffffffffffffffffffffffffffffffffff1602179055508173ffffffffffffffffffffffffffffffffffffffff168173ffffffffffffffffffffffffffffffffffffffff167f8be0079c531659141344cd1fd0a4f28419497f9722a3daafe3b4186f6b6457e060405160405180910390a35050565b600081600001549050919050565b600073ffffffffffffffffffffffffffffffffffffffff168273ffffffffffffffffffffffffffffffffffffffff160361156f576040517f08c379a000000000000000000000000000000000000000000000000000000000815260040161156690612e05565b60405180910390fd5b611578816119e6565b156115b8576040517f08c379a00000000000000000000000000000000000000000000000000000000081526004016115af90612e71565b60405180910390fd5b6115c460008383611a52565b6001600360008473ffffffffffffffffffffffffffffffffffffffff1673ffffffffffffffffffffffffffffffffffffffff16815260200190815260200160002060008282546116149190612d19565b92505081905550816002600083815260200190815260200160002060006101000a81548173ffffffffffffffffffffffffffffffffffffffff021916908373ffffffffffffffffffffffffffffffffffffffff160217905550808273ffffffffffffffffffffffffffffffffffffffff16600073ffffffffffffffffffffffffffffffffffffffff167fddf252ad1be2c89b69c2b068fc378daa952ba7f163c4a11628f55a4df523b3ef60405160405180910390a46116d560008383611a57565b5050565b8173ffffffffffffffffffffffffffffffffffffffff168373ffffffffffffffffffffffffffffffffffffffff1603611747576040517f08c379a000000000000000000000000000000000000000000000000000000000815260040161173e90612edd565b60405180910390fd5b80600560008573ffffffffffffffffffffffffffffffffffffffff1673ffffffffffffffffffffffffffffffffffffffff16815260200190815260200160002060008473ffffffffffffffffffffffffffffffffffffffff1673ffffffffffffffffffffffffffffffffffffffff16815260200190815260200160002060006101000a81548160ff0219169083151502179055508173ffffffffffffffffffffffffffffffffffffffff168373ffffffffffffffffffffffffffffffffffffffff167f17307eab39ab6107e8899845ad3d59bd9653f200f220920489ca2b5937696c31836040516118389190611d24565b60405180910390a3505050565b611850848484611148565b61185c84848484611a5c565b61189b576040517f08c379a000000000000000000000000000000000000000000000000000000000815260040161189290612f6f565b60405180910390fd5b50505050565b60008062015180426118b39190612fbe565b9050600062253d8c62010bd9836118ca9190612ff9565b6118d49190612ff9565b9050600062023ab18260046118e9919061303d565b6118f391906130b5565b9050600460038262023ab1611908919061303d565b6119129190612ff9565b61191c91906130b5565b82611927919061311f565b9150600062164b0960018461193c9190612ff9565b610fa0611949919061303d565b61195391906130b5565b9050601f6004826105b5611967919061303d565b61197191906130b5565b8461197c919061311f565b6119869190612ff9565b9250600061098f84605061199a919061303d565b6119a491906130b5565b9050600b816119b391906130b5565b935083600c6119c2919061303d565b6002826119cf9190612ff9565b6119d9919061311f565b9050809550505050505090565b60008073ffffffffffffffffffffffffffffffffffffffff166002600084815260200190815260200160002060009054906101000a900473ffffffffffffffffffffffffffffffffffffffff1673ffffffffffffffffffffffffffffffffffffffff1614159050919050565b505050565b505050565b6000611a7d8473ffffffffffffffffffffffffffffffffffffffff16611be3565b15611bd6578373ffffffffffffffffffffffffffffffffffffffff1663150b7a02611aa6610ff2565b8786866040518563ffffffff1660e01b8152600401611ac894939291906131b7565b6020604051808303816000875af1925050508015611b0457506040513d601f19601f82011682018060405250810190611b019190613218565b60015b611b86573d8060008114611b34576040519150601f19603f3d011682016040523d82523d6000602084013e611b39565b606091505b506000815103611b7e576040517f08c379a0000000000000000000000000000000000000000000000000000000008152600401611b7590612f6f565b60405180910390fd5b805181602001fd5b63150b7a0260e01b7bffffffffffffffffffffffffffffffffffffffffffffffffffffffff1916817bffffffffffffffffffffffffffffffffffffffffffffffffffffffff191614915050611bdb565b600190505b949350505050565b6000808273ffffffffffffffffffffffffffffffffffffffff163b119050919050565b828054828255906000526020600020908101928215611c42579160200282015b82811115611c41578251825591602001919060010190611c26565b5b509050611c4f9190611c53565b5090565b5b80821115611c6c576000816000905550600101611c54565b5090565b6000604051905090565b600080fd5b600080fd5b60007fffffffff0000000000000000000000000000000000000000000000000000000082169050919050565b611cb981611c84565b8114611cc457600080fd5b50565b600081359050611cd681611cb0565b92915050565b600060208284031215611cf257611cf1611c7a565b5b6000611d0084828501611cc7565b91505092915050565b60008115159050919050565b611d1e81611d09565b82525050565b6000602082019050611d396000830184611d15565b92915050565b600081519050919050565b600082825260208201905092915050565b60005b83811015611d79578082015181840152602081019050611d5e565b60008484015250505050565b6000601f19601f8301169050919050565b6000611da182611d3f565b611dab8185611d4a565b9350611dbb818560208601611d5b565b611dc481611d85565b840191505092915050565b60006020820190508181036000830152611de98184611d96565b905092915050565b6000819050919050565b611e0481611df1565b8114611e0f57600080fd5b50565b600081359050611e2181611dfb565b92915050565b600060208284031215611e3d57611e3c611c7a565b5b6000611e4b84828501611e12565b91505092915050565b600073ffffffffffffffffffffffffffffffffffffffff82169050919050565b6000611e7f82611e54565b9050919050565b611e8f81611e74565b82525050565b6000602082019050611eaa6000830184611e86565b92915050565b611eb981611e74565b8114611ec457600080fd5b50565b600081359050611ed681611eb0565b92915050565b60008060408385031215611ef357611ef2611c7a565b5b6000611f0185828601611ec7565b9250506020611f1285828601611e12565b9150509250929050565b600080600060608486031215611f3557611f34611c7a565b5b6000611f4386828701611ec7565b9350506020611f5486828701611ec7565b9250506040611f6586828701611e12565b9150509250925092565b60008060408385031215611f8657611f85611c7a565b5b6000611f9485828601611e12565b9250506020611fa585828601611e12565b9150509250929050565b611fb881611df1565b82525050565b6000602082019050611fd36000830184611faf565b92915050565b600060208284031215611fef57611fee611c7a565b5b6000611ffd84828501611ec7565b91505092915050565b600080fd5b7f4e487b7100000000000000000000000000000000000000000000000000000000600052604160045260246000fd5b61204382611d85565b810181811067ffffffffffffffff821117156120625761206161200b565b5b80604052505050565b6000612075611c70565b9050612081828261203a565b919050565b600067ffffffffffffffff8211156120a1576120a061200b565b5b602082029050602081019050919050565b600080fd5b600080fd5b600067ffffffffffffffff8211156120d7576120d661200b565b5b6120e082611d85565b9050602081019050919050565b82818337600083830152505050565b600061210f61210a846120bc565b61206b565b90508281526020810184848401111561212b5761212a6120b7565b5b6121368482856120ed565b509392505050565b600082601f83011261215357612152612006565b5b81356121638482602086016120fc565b91505092915050565b600061217f61217a84612086565b61206b565b905080838252602082019050602084028301858111156121a2576121a16120b2565b5b835b818110156121e957803567ffffffffffffffff8111156121c7576121c6612006565b5b8086016121d4898261213e565b855260208501945050506020810190506121a4565b5050509392505050565b600082601f83011261220857612207612006565b5b813561221884826020860161216c565b91505092915050565b600067ffffffffffffffff82111561223c5761223b61200b565b5b602082029050602081019050919050565b600061226061225b84612221565b61206b565b90508083825260208201905060208402830185811115612283576122826120b2565b5b835b818110156122ac57806122988882611e12565b845260208401935050602081019050612285565b5050509392505050565b600082601f8301126122cb576122ca612006565b5b81356122db84826020860161224d565b91505092915050565b6000806000606084860312156122fd576122fc611c7a565b5b600061230b86828701611ec7565b935050602084013567ffffffffffffffff81111561232c5761232b611c7f565b5b612338868287016121f3565b925050604084013567ffffffffffffffff81111561235957612358611c7f565b5b612365868287016122b6565b9150509250925092565b61237881611d09565b811461238357600080fd5b50565b6000813590506123958161236f565b92915050565b600080604083850312156123b2576123b1611c7a565b5b60006123c085828601611ec7565b92505060206123d185828601612386565b9150509250929050565b600067ffffffffffffffff8211156123f6576123f561200b565b5b6123ff82611d85565b9050602081019050919050565b600061241f61241a846123db565b61206b565b90508281526020810184848401111561243b5761243a6120b7565b5b6124468482856120ed565b509392505050565b600082601f83011261246357612462612006565b5b813561247384826020860161240c565b91505092915050565b6000806000806080858703121561249657612495611c7a565b5b60006124a487828801611ec7565b94505060206124b587828801611ec7565b93505060406124c687828801611e12565b925050606085013567ffffffffffffffff8111156124e7576124e6611c7f565b5b6124f38782880161244e565b91505092959194509250565b6000806040838503121561251657612515611c7a565b5b600061252485828601611ec7565b925050602061253585828601611ec7565b9150509250929050565b7f4e487b7100000000000000000000000000000000000000000000000000000000600052602260045260246000fd5b6000600282049050600182168061258657607f821691505b6020821081036125995761259861253f565b5b50919050565b7f4552433732313a20617070726f76616c20746f2063757272656e74206f776e6560008201527f7200000000000000000000000000000000000000000000000000000000000000602082015250565b60006125fb602183611d4a565b91506126068261259f565b604082019050919050565b6000602082019050818103600083015261262a816125ee565b9050919050565b7f4552433732313a20617070726f76652063616c6c6572206973206e6f7420746f60008201527f6b656e206f776e6572206e6f7220617070726f76656420666f7220616c6c0000602082015250565b600061268d603e83611d4a565b915061269882612631565b604082019050919050565b600060208201905081810360008301526126bc81612680565b9050919050565b7f4552433732313a2063616c6c6572206973206e6f7420746f6b656e206f776e6560008201527f72206e6f7220617070726f766564000000000000000000000000000000000000602082015250565b600061271f602e83611d4a565b915061272a826126c3565b604082019050919050565b6000602082019050818103600083015261274e81612712565b9050919050565b7f4552433732313a20696e76616c696420746f6b656e2049440000000000000000600082015250565b600061278b601883611d4a565b915061279682612755565b602082019050919050565b600060208201905081810360008301526127ba8161277e565b9050919050565b7f4552433732313a2061646472657373207a65726f206973206e6f74206120766160008201527f6c6964206f776e65720000000000000000000000000000000000000000000000602082015250565b600061281d602983611d4a565b9150612828826127c1565b604082019050919050565b6000602082019050818103600083015261284c81612810565b9050919050565b7f4e487b7100000000000000000000000000000000000000000000000000000000600052603260045260246000fd5b60008190508160005260206000209050919050565b60006020601f8301049050919050565b600082821b905092915050565b6000600883026128e47fffffffffffffffffffffffffffffffffffffffffffffffffffffffffffffffff826128a7565b6128ee86836128a7565b95508019841693508086168417925050509392505050565b6000819050919050565b600061292b61292661292184611df1565b612906565b611df1565b9050919050565b6000819050919050565b61294583612910565b61295961295182612932565b8484546128b4565b825550505050565b600090565b61296e612961565b61297981848461293c565b505050565b5b8181101561299d57612992600082612966565b60018101905061297f565b5050565b601f8211156129e2576129b381612882565b6129bc84612897565b810160208510156129cb578190505b6129df6129d785612897565b83018261297e565b50505b505050565b600082821c905092915050565b6000612a05600019846008026129e7565b1980831691505092915050565b6000612a1e83836129f4565b9150826002028217905092915050565b612a3782611d3f565b67ffffffffffffffff811115612a5057612a4f61200b565b5b612a5a825461256e565b612a658282856129a1565b600060209050601f831160018114612a985760008415612a86578287015190505b612a908582612a12565b865550612af8565b601f198416612aa686612882565b60005b82811015612ace57848901518255600182019150602085019450602081019050612aa9565b86831015612aeb5784890151612ae7601f8916826129f4565b8355505b6001600288020188555050505b505050505050565b7f4f776e61626c653a206e6577206f776e657220697320746865207a65726f206160008201527f6464726573730000000000000000000000000000000000000000000000000000602082015250565b6000612b5c602683611d4a565b9150612b6782612b00565b604082019050919050565b60006020820190508181036000830152612b8b81612b4f565b9050919050565b7f4552433732313a207472616e736665722066726f6d20696e636f72726563742060008201527f6f776e6572000000000000000000000000000000000000000000000000000000602082015250565b6000612bee602583611d4a565b9150612bf982612b92565b604082019050919050565b60006020820190508181036000830152612c1d81612be1565b9050919050565b7f4552433732313a207472616e7366657220746f20746865207a65726f2061646460008201527f7265737300000000000000000000000000000000000000000000000000000000602082015250565b6000612c80602483611d4a565b9150612c8b82612c24565b604082019050919050565b60006020820190508181036000830152612caf81612c73565b9050919050565b7f4e487b7100000000000000000000000000000000000000000000000000000000600052601160045260246000fd5b6000612cf082611df1565b9150612cfb83611df1565b9250828203905081811115612d1357612d12612cb6565b5b92915050565b6000612d2482611df1565b9150612d2f83611df1565b9250828201905080821115612d4757612d46612cb6565b5b92915050565b7f4f776e61626c653a2063616c6c6572206973206e6f7420746865206f776e6572600082015250565b6000612d83602083611d4a565b9150612d8e82612d4d565b602082019050919050565b60006020820190508181036000830152612db281612d76565b9050919050565b7f4552433732313a206d696e7420746f20746865207a65726f2061646472657373600082015250565b6000612def602083611d4a565b9150612dfa82612db9565b602082019050919050565b60006020820190508181036000830152612e1e81612de2565b9050919050565b7f4552433732313a20746f6b656e20616c7265616479206d696e74656400000000600082015250565b6000612e5b601c83611d4a565b9150612e6682612e25565b602082019050919050565b60006020820190508181036000830152612e8a81612e4e565b9050919050565b7f4552433732313a20617070726f766520746f2063616c6c657200000000000000600082015250565b6000612ec7601983611d4a565b9150612ed282612e91565b602082019050919050565b60006020820190508181036000830152612ef681612eba565b9050919050565b7f4552433732313a207472616e7366657220746f206e6f6e20455243373231526560008201527f63656976657220696d706c656d656e7465720000000000000000000000000000602082015250565b6000612f59603283611d4a565b9150612f6482612efd565b604082019050919050565b60006020820190508181036000830152612f8881612f4c565b9050919050565b7f4e487b7100000000000000000000000000000000000000000000000000000000600052601260045260246000fd5b6000612fc982611df1565b9150612fd483611df1565b925082612fe457612fe3612f8f565b5b828204905092915050565b6000819050919050565b600061300482612fef565b915061300f83612fef565b92508282019050828112156000831216838212600084121516171561303757613036612cb6565b5b92915050565b600061304882612fef565b915061305383612fef565b925082820261306181612fef565b91507f8000000000000000000000000000000000000000000000000000000000000000841460008412161561309957613098612cb6565b5b82820584148315176130ae576130ad612cb6565b5b5092915050565b60006130c082612fef565b91506130cb83612fef565b9250826130db576130da612f8f565b5b600160000383147f80000000000000000000000000000000000000000000000000000000000000008314161561311457613113612cb6565b5b828205905092915050565b600061312a82612fef565b915061313583612fef565b925082820390508181126000841216828213600085121516171561315c5761315b612cb6565b5b92915050565b600081519050919050565b600082825260208201905092915050565b600061318982613162565b613193818561316d565b93506131a3818560208601611d5b565b6131ac81611d85565b840191505092915050565b60006080820190506131cc6000830187611e86565b6131d96020830186611e86565b6131e66040830185611faf565b81810360608301526131f8818461317e565b905095945050505050565b60008151905061321281611cb0565b92915050565b60006020828403121561322e5761322d611c7a565b5b600061323c84828501613203565b9150509291505056fea26469706673582212203c79877cb0be60f04d691d0f4f487c22da95c04d5a5e824becf518b3d907524464736f6c63430008110033",
  "linkReferences": {},
  "deployedLinkReferences": {}
}