{
  "_format": "hh-sol-artifact-1",
  "contractName": "FoodSource",
  "sourceName": "contracts/foodSource.sol",
  "abi": [
    {
      "inputs": [],
      "stateMutability": "nonpayable",
      "type": "constructor"
    },
    {
      "anonymous": false,
      "inputs": [
        {
          "indexed": true,
          "internalType": "address",
          "name": "owner",
          "type": "address"
        },
        {
          "indexed": true,
          "internalType": "address",
          "name": "approved",
          "type": "address"
        },
        {
          "indexed": true,
          "internalType": "uint256",
          "name": "tokenId",
          "type": "uint256"
        }
      ],
      "name": "Approval",
      "type": "event"
    },
    {
      "anonymous": false,
      "inputs": [
        {
          "indexed": true,
          "internalType": "address",
          "name": "owner",
          "type": "address"
        },
        {
          "indexed": true,
          "internalType": "address",
          "name": "operator",
          "type": "address"
        },
        {
          "indexed": false,
          "internalType": "bool",
          "name": "approved",
          "type": "bool"
        }
      ],
      "name": "ApprovalForAll",
      "type": "event"
    },
    {
      "anonymous": false,
      "inputs": [
        {
          "indexed": true,
          "internalType": "address",
          "name": "previousOwner",
          "type": "address"
        },
        {
          "indexed": true,
          "internalType": "address",
          "name": "newOwner",
          "type": "address"
        }
      ],
      "name": "OwnershipTransferred",
      "type": "event"
    },
    {
      "anonymous": false,
      "inputs": [
        {
          "indexed": true,
          "internalType": "address",
          "name": "from",
          "type": "address"
        },
        {
          "indexed": true,
          "internalType": "address",
          "name": "to",
          "type": "address"
        },
        {
          "indexed": true,
          "internalType": "uint256",
          "name": "tokenId",
          "type": "uint256"
        }
      ],
      "name": "Transfer",
      "type": "event"
    },
    {
      "inputs": [
        {
          "internalType": "address",
          "name": "to",
          "type": "address"
        },
        {
          "internalType": "uint256",
          "name": "tokenId",
          "type": "uint256"
        }
      ],
      "name": "approve",
      "outputs": [],
      "stateMutability": "nonpayable",
      "type": "function"
    },
    {
      "inputs": [
        {
          "internalType": "address",
          "name": "owner",
          "type": "address"
        }
      ],
      "name": "balanceOf",
      "outputs": [
        {
          "internalType": "uint256",
          "name": "",
          "type": "uint256"
        }
      ],
      "stateMutability": "view",
      "type": "function"
    },
    {
      "inputs": [
        {
          "internalType": "uint256",
          "name": "tokenId",
          "type": "uint256"
        }
      ],
      "name": "getApproved",
      "outputs": [
        {
          "internalType": "address",
          "name": "",
          "type": "address"
        }
      ],
      "stateMutability": "view",
      "type": "function"
    },
    {
      "inputs": [
        {
          "internalType": "uint256",
          "name": "",
          "type": "uint256"
        },
        {
          "internalType": "uint256",
          "name": "",
          "type": "uint256"
        }
      ],
      "name": "idToMonths",
      "outputs": [
        {
          "internalType": "uint256",
          "name": "",
          "type": "uint256"
        }
      ],
      "stateMutability": "view",
      "type": "function"
    },
    {
      "inputs": [
        {
          "internalType": "uint256",
          "name": "",
          "type": "uint256"
        },
        {
          "internalType": "uint256",
          "name": "",
          "type": "uint256"
        }
      ],
      "name": "idToUris",
      "outputs": [
        {
          "internalType": "string",
          "name": "",
          "type": "string"
        }
      ],
      "stateMutability": "view",
      "type": "function"
    },
    {
      "inputs": [
        {
          "internalType": "address",
          "name": "owner",
          "type": "address"
        },
        {
          "internalType": "address",
          "name": "operator",
          "type": "address"
        }
      ],
      "name": "isApprovedForAll",
      "outputs": [
        {
          "internalType": "bool",
          "name": "",
          "type": "bool"
        }
      ],
      "stateMutability": "view",
      "type": "function"
    },
    {
      "inputs": [
        {
          "internalType": "address",
          "name": "_to",
          "type": "address"
        },
        {
          "internalType": "string[]",
          "name": "_uris",
          "type": "string[]"
        },
        {
          "internalType": "uint256[]",
          "name": "_validMonths",
          "type": "uint256[]"
        }
      ],
      "name": "mint",
      "outputs": [
        {
          "internalType": "uint256",
          "name": "",
          "type": "uint256"
        }
      ],
      "stateMutability": "nonpayable",
      "type": "function"
    },
    {
      "inputs": [],
      "name": "name",
      "outputs": [
        {
          "internalType": "string",
          "name": "",
          "type": "string"
        }
      ],
      "stateMutability": "view",
      "type": "function"
    },
    {
      "inputs": [],
      "name": "owner",
      "outputs": [
        {
          "internalType": "address",
          "name": "",
          "type": "address"
        }
      ],
      "stateMutability": "view",
      "type": "function"
    },
    {
      "inputs": [
        {
          "internalType": "uint256",
          "name": "tokenId",
          "type": "uint256"
        }
      ],
      "name": "ownerOf",
      "outputs": [
        {
          "internalType": "address",
          "name": "",
          "type": "address"
        }
      ],
      "stateMutability": "view",
      "type": "function"
    },
    {
      "inputs": [],
      "name": "renounceOwnership",
      "outputs": [],
      "stateMutability": "nonpayable",
      "type": "function"
    },
    {
      "inputs": [
        {
          "internalType": "address",
          "name": "from",
          "type": "address"
        },
        {
          "internalType": "address",
          "name": "to",
          "type": "address"
        },
        {
          "internalType": "uint256",
          "name": "tokenId",
          "type": "uint256"
        }
      ],
      "name": "safeTransferFrom",
      "outputs": [],
      "stateMutability": "nonpayable",
      "type": "function"
    },
    {
      "inputs": [
        {
          "internalType": "address",
          "name": "from",
          "type": "address"
        },
        {
          "internalType": "address",
          "name": "to",
          "type": "address"
        },
        {
          "internalType": "uint256",
          "name": "tokenId",
          "type": "uint256"
        },
        {
          "internalType": "bytes",
          "name": "data",
          "type": "bytes"
        }
      ],
      "name": "safeTransferFrom",
      "outputs": [],
      "stateMutability": "nonpayable",
      "type": "function"
    },
    {
      "inputs": [
        {
          "internalType": "address",
          "name": "operator",
          "type": "address"
        },
        {
          "internalType": "bool",
          "name": "approved",
          "type": "bool"
        }
      ],
      "name": "setApprovalForAll",
      "outputs": [],
      "stateMutability": "nonpayable",
      "type": "function"
    },
    {
      "inputs": [
        {
          "internalType": "bytes4",
          "name": "interfaceId",
          "type": "bytes4"
        }
      ],
      "name": "supportsInterface",
      "outputs": [
        {
          "internalType": "bool",
          "name": "",
          "type": "bool"
        }
      ],
      "stateMutability": "view",
      "type": "function"
    },
    {
      "inputs": [],
      "name": "symbol",
      "outputs": [
        {
          "internalType": "string",
          "name": "",
          "type": "string"
        }
      ],
      "stateMutability": "view",
      "type": "function"
    },
    {
      "inputs": [
        {
          "internalType": "uint256",
          "name": "tokenId",
          "type": "uint256"
        }
      ],
      "name": "tokenURI",
      "outputs": [
        {
          "internalType": "string",
          "name": "result",
          "type": "string"
        }
      ],
      "stateMutability": "view",
      "type": "function"
    },
    {
      "inputs": [
        {
          "internalType": "address",
          "name": "from",
          "type": "address"
        },
        {
          "internalType": "address",
          "name": "to",
          "type": "address"
        },
        {
          "internalType": "uint256",
          "name": "tokenId",
          "type": "uint256"
        }
      ],
      "name": "transferFrom",
      "outputs": [],
      "stateMutability": "nonpayable",
      "type": "function"
    },
    {
      "inputs": [
        {
          "internalType": "address",
          "name": "newOwner",
          "type": "address"
        }
      ],
      "name": "transferOwnership",
      "outputs": [],
      "stateMutability": "nonpayable",
      "type": "function"
    }
  ],
  "bytecode": "0x60806040523480156200001157600080fd5b506040518060400160405280600a81526020017f466f6f64536f75726365000000000000000000000000000000000000000000008152506040518060400160405280600281526020017f4653000000000000000000000000000000000000000000000000000000000000815250816000908051906020019062000096929190620001d3565b508060019080519060200190620000af929190620001d3565b505050620000d2620000c6620000ef60201b60201c565b620000f760201b60201c565b620000e96008620001bd60201b620010451760201c565b620002e8565b600033905090565b6000600760009054906101000a900473ffffffffffffffffffffffffffffffffffffffff16905081600760006101000a81548173ffffffffffffffffffffffffffffffffffffffff021916908373ffffffffffffffffffffffffffffffffffffffff1602179055508173ffffffffffffffffffffffffffffffffffffffff168173ffffffffffffffffffffffffffffffffffffffff167f8be0079c531659141344cd1fd0a4f28419497f9722a3daafe3b4186f6b6457e060405160405180910390a35050565b6001816000016000828254019250508190555050565b828054620001e19062000283565b90600052602060002090601f01602090048101928262000205576000855562000251565b82601f106200022057805160ff191683800117855562000251565b8280016001018555821562000251579182015b828111156200025057825182559160200191906001019062000233565b5b50905062000260919062000264565b5090565b5b808211156200027f57600081600090555060010162000265565b5090565b600060028204905060018216806200029c57607f821691505b60208210811415620002b357620002b2620002b9565b5b50919050565b7f4e487b7100000000000000000000000000000000000000000000000000000000600052602260045260246000fd5b61328a80620002f86000396000f3fe608060405234801561001057600080fd5b50600436106101215760003560e01c806370a08231116100ad578063a22cb46511610071578063a22cb4651461032e578063b88d4fde1461034a578063c87b56dd14610366578063e985e9c514610396578063f2fde38b146103c657610121565b806370a0823114610288578063715018a6146102b85780638a605436146102c25780638da5cb5b146102f257806395d89b411461031057610121565b806323b872dd116100f457806323b872dd146101c05780633ffcc8f3146101dc57806342842e0e1461020c57806343eb12d8146102285780636352211e1461025857610121565b806301ffc9a71461012657806306fdde0314610156578063081812fc14610174578063095ea7b3146101a4575b600080fd5b610140600480360381019061013b91906122cc565b6103e2565b60405161014d9190612650565b60405180910390f35b61015e6104c4565b60405161016b919061266b565b60405180910390f35b61018e6004803603810190610189919061231e565b610556565b60405161019b91906125e9565b60405180910390f35b6101be60048036038101906101b99190612290565b61059c565b005b6101da60048036038101906101d5919061210b565b6106b4565b005b6101f660048036038101906101f19190612347565b610714565b604051610203919061266b565b60405180910390f35b6102266004803603810190610221919061210b565b6107cd565b005b610242600480360381019061023d9190612347565b6107ed565b60405161024f919061282d565b60405180910390f35b610272600480360381019061026d919061231e565b61081e565b60405161027f91906125e9565b60405180910390f35b6102a2600480360381019061029d91906120a6565b6108d0565b6040516102af919061282d565b60405180910390f35b6102c0610988565b005b6102dc60048036038101906102d791906121d5565b61099c565b6040516102e9919061282d565b60405180910390f35b6102fa610b4a565b60405161030791906125e9565b60405180910390f35b610318610b74565b604051610325919061266b565b60405180910390f35b61034860048036038101906103439190612254565b610c06565b005b610364600480360381019061035f919061215a565b610c1c565b005b610380600480360381019061037b919061231e565b610c7e565b60405161038d919061266b565b60405180910390f35b6103b060048036038101906103ab91906120cf565b610f2d565b6040516103bd9190612650565b60405180910390f35b6103e060048036038101906103db91906120a6565b610fc1565b005b60007f80ac58cd000000000000000000000000000000000000000000000000000000007bffffffffffffffffffffffffffffffffffffffffffffffffffffffff1916827bffffffffffffffffffffffffffffffffffffffffffffffffffffffff191614806104ad57507f5b5e139f000000000000000000000000000000000000000000000000000000007bffffffffffffffffffffffffffffffffffffffffffffffffffffffff1916827bffffffffffffffffffffffffffffffffffffffffffffffffffffffff1916145b806104bd57506104bc8261105b565b5b9050919050565b6060600080546104d390612d83565b80601f01602080910402602001604051908101604052809291908181526020018280546104ff90612d83565b801561054c5780601f106105215761010080835404028352916020019161054c565b820191906000526020600020905b81548152906001019060200180831161052f57829003601f168201915b5050505050905090565b6000610561826110c5565b6004600083815260200190815260200160002060009054906101000a900473ffffffffffffffffffffffffffffffffffffffff169050919050565b60006105a78261081e565b90508073ffffffffffffffffffffffffffffffffffffffff168373ffffffffffffffffffffffffffffffffffffffff161415610618576040517f08c379a000000000000000000000000000000000000000000000000000000000815260040161060f906127ed565b60405180910390fd5b8073ffffffffffffffffffffffffffffffffffffffff16610637611110565b73ffffffffffffffffffffffffffffffffffffffff161480610666575061066581610660611110565b610f2d565b5b6106a5576040517f08c379a000000000000000000000000000000000000000000000000000000000815260040161069c9061276d565b60405180910390fd5b6106af8383611118565b505050565b6106c56106bf611110565b826111d1565b610704576040517f08c379a00000000000000000000000000000000000000000000000000000000081526004016106fb9061280d565b60405180910390fd5b61070f838383611266565b505050565b6009602052816000526040600020818154811061073057600080fd5b9060005260206000200160009150915050805461074c90612d83565b80601f016020809104026020016040519081016040528092919081815260200182805461077890612d83565b80156107c55780601f1061079a576101008083540402835291602001916107c5565b820191906000526020600020905b8154815290600101906020018083116107a857829003601f168201915b505050505081565b6107e883838360405180602001604052806000815250610c1c565b505050565b600a602052816000526040600020818154811061080957600080fd5b90600052602060002001600091509150505481565b6000806002600084815260200190815260200160002060009054906101000a900473ffffffffffffffffffffffffffffffffffffffff169050600073ffffffffffffffffffffffffffffffffffffffff168173ffffffffffffffffffffffffffffffffffffffff1614156108c7576040517f08c379a00000000000000000000000000000000000000000000000000000000081526004016108be906127cd565b60405180910390fd5b80915050919050565b60008073ffffffffffffffffffffffffffffffffffffffff168273ffffffffffffffffffffffffffffffffffffffff161415610941576040517f08c379a00000000000000000000000000000000000000000000000000000000081526004016109389061274d565b60405180910390fd5b600360008373ffffffffffffffffffffffffffffffffffffffff1673ffffffffffffffffffffffffffffffffffffffff168152602001908152602001600020549050919050565b6109906114cd565b61099a600061154b565b565b6000806109a96008611611565b90506109b5858261161f565b836000815181106109ef577f4e487b7100000000000000000000000000000000000000000000000000000000600052603260045260246000fd5b602002602001015160096000838152602001908152602001600020600081548110610a43577f4e487b7100000000000000000000000000000000000000000000000000000000600052603260045260246000fd5b906000526020600020019080519060200190610a60929190611d37565b5083600181518110610a9b577f4e487b7100000000000000000000000000000000000000000000000000000000600052603260045260246000fd5b602002602001015160096000838152602001908152602001600020600181548110610aef577f4e487b7100000000000000000000000000000000000000000000000000000000600052603260045260246000fd5b906000526020600020019080519060200190610b0c929190611d37565b5082600a60008381526020019081526020016000209080519060200190610b34929190611dbd565b50610b3f6008611045565b809150509392505050565b6000600760009054906101000a900473ffffffffffffffffffffffffffffffffffffffff16905090565b606060018054610b8390612d83565b80601f0160208091040260200160405190810160405280929190818152602001828054610baf90612d83565b8015610bfc5780601f10610bd157610100808354040283529160200191610bfc565b820191906000526020600020905b815481529060010190602001808311610bdf57829003601f168201915b5050505050905090565b610c18610c11611110565b83836117f9565b5050565b610c2d610c27611110565b836111d1565b610c6c576040517f08c379a0000000000000000000000000000000000000000000000000000000008152600401610c639061280d565b60405180910390fd5b610c7884848484611966565b50505050565b60606000610c8a6119c2565b90506000600a6000858152602001908152602001600020805480602002602001604051908101604052809291908181526020018280548015610ceb57602002820191906000526020600020905b815481526020019060010190808311610cd7575b5050505050905060008151905060005b81811015610e385783838281518110610d3d577f4e487b7100000000000000000000000000000000000000000000000000000000600052603260045260246000fd5b60200260200101511415610e2d5760096000878152602001908152602001600020600081548110610d97577f4e487b7100000000000000000000000000000000000000000000000000000000600052603260045260246000fd5b906000526020600020018054610dac90612d83565b80601f0160208091040260200160405190810160405280929190818152602001828054610dd890612d83565b8015610e255780601f10610dfa57610100808354040283529160200191610e25565b820191906000526020600020905b815481529060010190602001808311610e0857829003601f168201915b505050505094505b806001019050610cfb565b50600084511415610f255760096000868152602001908152602001600020600181548110610e8f577f4e487b7100000000000000000000000000000000000000000000000000000000600052603260045260246000fd5b906000526020600020018054610ea490612d83565b80601f0160208091040260200160405190810160405280929190818152602001828054610ed090612d83565b8015610f1d5780601f10610ef257610100808354040283529160200191610f1d565b820191906000526020600020905b815481529060010190602001808311610f0057829003601f168201915b505050505093505b505050919050565b6000600560008473ffffffffffffffffffffffffffffffffffffffff1673ffffffffffffffffffffffffffffffffffffffff16815260200190815260200160002060008373ffffffffffffffffffffffffffffffffffffffff1673ffffffffffffffffffffffffffffffffffffffff16815260200190815260200160002060009054906101000a900460ff16905092915050565b610fc96114cd565b600073ffffffffffffffffffffffffffffffffffffffff168173ffffffffffffffffffffffffffffffffffffffff161415611039576040517f08c379a0000000000000000000000000000000000000000000000000000000008152600401611030906126ad565b60405180910390fd5b6110428161154b565b50565b6001816000016000828254019250508190555050565b60007f01ffc9a7000000000000000000000000000000000000000000000000000000007bffffffffffffffffffffffffffffffffffffffffffffffffffffffff1916827bffffffffffffffffffffffffffffffffffffffffffffffffffffffff1916149050919050565b6110ce81611b07565b61110d576040517f08c379a0000000000000000000000000000000000000000000000000000000008152600401611104906127cd565b60405180910390fd5b50565b600033905090565b816004600083815260200190815260200160002060006101000a81548173ffffffffffffffffffffffffffffffffffffffff021916908373ffffffffffffffffffffffffffffffffffffffff160217905550808273ffffffffffffffffffffffffffffffffffffffff1661118b8361081e565b73ffffffffffffffffffffffffffffffffffffffff167f8c5be1e5ebec7d5bd14f71427d1e84f3dd0314c0f7b2291e5b200ac8c7c3b92560405160405180910390a45050565b6000806111dd8361081e565b90508073ffffffffffffffffffffffffffffffffffffffff168473ffffffffffffffffffffffffffffffffffffffff16148061121f575061121e8185610f2d565b5b8061125d57508373ffffffffffffffffffffffffffffffffffffffff1661124584610556565b73ffffffffffffffffffffffffffffffffffffffff16145b91505092915050565b8273ffffffffffffffffffffffffffffffffffffffff166112868261081e565b73ffffffffffffffffffffffffffffffffffffffff16146112dc576040517f08c379a00000000000000000000000000000000000000000000000000000000081526004016112d3906126cd565b60405180910390fd5b600073ffffffffffffffffffffffffffffffffffffffff168273ffffffffffffffffffffffffffffffffffffffff16141561134c576040517f08c379a00000000000000000000000000000000000000000000000000000000081526004016113439061270d565b60405180910390fd5b611357838383611b73565b611362600082611118565b6001600360008573ffffffffffffffffffffffffffffffffffffffff1673ffffffffffffffffffffffffffffffffffffffff16815260200190815260200160002060008282546113b29190612c8f565b925050819055506001600360008473ffffffffffffffffffffffffffffffffffffffff1673ffffffffffffffffffffffffffffffffffffffff168152602001908152602001600020600082825461140991906129f3565b92505081905550816002600083815260200190815260200160002060006101000a81548173ffffffffffffffffffffffffffffffffffffffff021916908373ffffffffffffffffffffffffffffffffffffffff160217905550808273ffffffffffffffffffffffffffffffffffffffff168473ffffffffffffffffffffffffffffffffffffffff167fddf252ad1be2c89b69c2b068fc378daa952ba7f163c4a11628f55a4df523b3ef60405160405180910390a46114c8838383611b78565b505050565b6114d5611110565b73ffffffffffffffffffffffffffffffffffffffff166114f3610b4a565b73ffffffffffffffffffffffffffffffffffffffff1614611549576040517f08c379a0000000000000000000000000000000000000000000000000000000008152600401611540906127ad565b60405180910390fd5b565b6000600760009054906101000a900473ffffffffffffffffffffffffffffffffffffffff16905081600760006101000a81548173ffffffffffffffffffffffffffffffffffffffff021916908373ffffffffffffffffffffffffffffffffffffffff1602179055508173ffffffffffffffffffffffffffffffffffffffff168173ffffffffffffffffffffffffffffffffffffffff167f8be0079c531659141344cd1fd0a4f28419497f9722a3daafe3b4186f6b6457e060405160405180910390a35050565b600081600001549050919050565b600073ffffffffffffffffffffffffffffffffffffffff168273ffffffffffffffffffffffffffffffffffffffff16141561168f576040517f08c379a00000000000000000000000000000000000000000000000000000000081526004016116869061278d565b60405180910390fd5b61169881611b07565b156116d8576040517f08c379a00000000000000000000000000000000000000000000000000000000081526004016116cf906126ed565b60405180910390fd5b6116e460008383611b73565b6001600360008473ffffffffffffffffffffffffffffffffffffffff1673ffffffffffffffffffffffffffffffffffffffff168152602001908152602001600020600082825461173491906129f3565b92505081905550816002600083815260200190815260200160002060006101000a81548173ffffffffffffffffffffffffffffffffffffffff021916908373ffffffffffffffffffffffffffffffffffffffff160217905550808273ffffffffffffffffffffffffffffffffffffffff16600073ffffffffffffffffffffffffffffffffffffffff167fddf252ad1be2c89b69c2b068fc378daa952ba7f163c4a11628f55a4df523b3ef60405160405180910390a46117f560008383611b78565b5050565b8173ffffffffffffffffffffffffffffffffffffffff168373ffffffffffffffffffffffffffffffffffffffff161415611868576040517f08c379a000000000000000000000000000000000000000000000000000000000815260040161185f9061272d565b60405180910390fd5b80600560008573ffffffffffffffffffffffffffffffffffffffff1673ffffffffffffffffffffffffffffffffffffffff16815260200190815260200160002060008473ffffffffffffffffffffffffffffffffffffffff1673ffffffffffffffffffffffffffffffffffffffff16815260200190815260200160002060006101000a81548160ff0219169083151502179055508173ffffffffffffffffffffffffffffffffffffffff168373ffffffffffffffffffffffffffffffffffffffff167f17307eab39ab6107e8899845ad3d59bd9653f200f220920489ca2b5937696c31836040516119599190612650565b60405180910390a3505050565b611971848484611266565b61197d84848484611b7d565b6119bc576040517f08c379a00000000000000000000000000000000000000000000000000000000081526004016119b39061268d565b60405180910390fd5b50505050565b60008062015180426119d49190612ab3565b9050600062253d8c62010bd9836119eb919061295f565b6119f5919061295f565b9050600062023ab1826004611a0a9190612ae4565b611a149190612a49565b9050600460038262023ab1611a299190612ae4565b611a33919061295f565b611a3d9190612a49565b82611a489190612bfb565b9150600062164b09600184611a5d919061295f565b610fa0611a6a9190612ae4565b611a749190612a49565b9050601f6004826105b5611a889190612ae4565b611a929190612a49565b84611a9d9190612bfb565b611aa7919061295f565b9250600061098f846050611abb9190612ae4565b611ac59190612a49565b9050600b81611ad49190612a49565b935083600c611ae39190612ae4565b600282611af0919061295f565b611afa9190612bfb565b9050809550505050505090565b60008073ffffffffffffffffffffffffffffffffffffffff166002600084815260200190815260200160002060009054906101000a900473ffffffffffffffffffffffffffffffffffffffff1673ffffffffffffffffffffffffffffffffffffffff1614159050919050565b505050565b505050565b6000611b9e8473ffffffffffffffffffffffffffffffffffffffff16611d14565b15611d07578373ffffffffffffffffffffffffffffffffffffffff1663150b7a02611bc7611110565b8786866040518563ffffffff1660e01b8152600401611be99493929190612604565b602060405180830381600087803b158015611c0357600080fd5b505af1925050508015611c3457506040513d601f19601f82011682018060405250810190611c3191906122f5565b60015b611cb7573d8060008114611c64576040519150601f19603f3d011682016040523d82523d6000602084013e611c69565b606091505b50600081511415611caf576040517f08c379a0000000000000000000000000000000000000000000000000000000008152600401611ca69061268d565b60405180910390fd5b805181602001fd5b63150b7a0260e01b7bffffffffffffffffffffffffffffffffffffffffffffffffffffffff1916817bffffffffffffffffffffffffffffffffffffffffffffffffffffffff191614915050611d0c565b600190505b949350505050565b6000808273ffffffffffffffffffffffffffffffffffffffff163b119050919050565b828054611d4390612d83565b90600052602060002090601f016020900481019282611d655760008555611dac565b82601f10611d7e57805160ff1916838001178555611dac565b82800160010185558215611dac579182015b82811115611dab578251825591602001919060010190611d90565b5b509050611db99190611e0a565b5090565b828054828255906000526020600020908101928215611df9579160200282015b82811115611df8578251825591602001919060010190611ddd565b5b509050611e069190611e0a565b5090565b5b80821115611e23576000816000905550600101611e0b565b5090565b6000611e3a611e358461286d565b612848565b90508083825260208201905082856020860282011115611e5957600080fd5b60005b85811015611ea357813567ffffffffffffffff811115611e7b57600080fd5b808601611e888982612067565b85526020850194506020840193505050600181019050611e5c565b5050509392505050565b6000611ec0611ebb84612899565b612848565b90508083825260208201905082856020860282011115611edf57600080fd5b60005b85811015611f0f5781611ef58882612091565b845260208401935060208301925050600181019050611ee2565b5050509392505050565b6000611f2c611f27846128c5565b612848565b905082815260208101848484011115611f4457600080fd5b611f4f848285612d41565b509392505050565b6000611f6a611f65846128f6565b612848565b905082815260208101848484011115611f8257600080fd5b611f8d848285612d41565b509392505050565b600081359050611fa4816131f8565b92915050565b600082601f830112611fbb57600080fd5b8135611fcb848260208601611e27565b91505092915050565b600082601f830112611fe557600080fd5b8135611ff5848260208601611ead565b91505092915050565b60008135905061200d8161320f565b92915050565b60008135905061202281613226565b92915050565b60008151905061203781613226565b92915050565b600082601f83011261204e57600080fd5b813561205e848260208601611f19565b91505092915050565b600082601f83011261207857600080fd5b8135612088848260208601611f57565b91505092915050565b6000813590506120a08161323d565b92915050565b6000602082840312156120b857600080fd5b60006120c684828501611f95565b91505092915050565b600080604083850312156120e257600080fd5b60006120f085828601611f95565b925050602061210185828601611f95565b9150509250929050565b60008060006060848603121561212057600080fd5b600061212e86828701611f95565b935050602061213f86828701611f95565b925050604061215086828701612091565b9150509250925092565b6000806000806080858703121561217057600080fd5b600061217e87828801611f95565b945050602061218f87828801611f95565b93505060406121a087828801612091565b925050606085013567ffffffffffffffff8111156121bd57600080fd5b6121c98782880161203d565b91505092959194509250565b6000806000606084860312156121ea57600080fd5b60006121f886828701611f95565b935050602084013567ffffffffffffffff81111561221557600080fd5b61222186828701611faa565b925050604084013567ffffffffffffffff81111561223e57600080fd5b61224a86828701611fd4565b9150509250925092565b6000806040838503121561226757600080fd5b600061227585828601611f95565b925050602061228685828601611ffe565b9150509250929050565b600080604083850312156122a357600080fd5b60006122b185828601611f95565b92505060206122c285828601612091565b9150509250929050565b6000602082840312156122de57600080fd5b60006122ec84828501612013565b91505092915050565b60006020828403121561230757600080fd5b600061231584828501612028565b91505092915050565b60006020828403121561233057600080fd5b600061233e84828501612091565b91505092915050565b6000806040838503121561235a57600080fd5b600061236885828601612091565b925050602061237985828601612091565b9150509250929050565b61238c81612cc3565b82525050565b61239b81612cd5565b82525050565b60006123ac82612927565b6123b6818561293d565b93506123c6818560208601612d50565b6123cf81612ea2565b840191505092915050565b60006123e582612932565b6123ef818561294e565b93506123ff818560208601612d50565b61240881612ea2565b840191505092915050565b600061242060328361294e565b915061242b82612eb3565b604082019050919050565b600061244360268361294e565b915061244e82612f02565b604082019050919050565b600061246660258361294e565b915061247182612f51565b604082019050919050565b6000612489601c8361294e565b915061249482612fa0565b602082019050919050565b60006124ac60248361294e565b91506124b782612fc9565b604082019050919050565b60006124cf60198361294e565b91506124da82613018565b602082019050919050565b60006124f260298361294e565b91506124fd82613041565b604082019050919050565b6000612515603e8361294e565b915061252082613090565b604082019050919050565b600061253860208361294e565b9150612543826130df565b602082019050919050565b600061255b60208361294e565b915061256682613108565b602082019050919050565b600061257e60188361294e565b915061258982613131565b602082019050919050565b60006125a160218361294e565b91506125ac8261315a565b604082019050919050565b60006125c4602e8361294e565b91506125cf826131a9565b604082019050919050565b6125e381612d37565b82525050565b60006020820190506125fe6000830184612383565b92915050565b60006080820190506126196000830187612383565b6126266020830186612383565b61263360408301856125da565b818103606083015261264581846123a1565b905095945050505050565b60006020820190506126656000830184612392565b92915050565b6000602082019050818103600083015261268581846123da565b905092915050565b600060208201905081810360008301526126a681612413565b9050919050565b600060208201905081810360008301526126c681612436565b9050919050565b600060208201905081810360008301526126e681612459565b9050919050565b600060208201905081810360008301526127068161247c565b9050919050565b600060208201905081810360008301526127268161249f565b9050919050565b60006020820190508181036000830152612746816124c2565b9050919050565b60006020820190508181036000830152612766816124e5565b9050919050565b6000602082019050818103600083015261278681612508565b9050919050565b600060208201905081810360008301526127a68161252b565b9050919050565b600060208201905081810360008301526127c68161254e565b9050919050565b600060208201905081810360008301526127e681612571565b9050919050565b6000602082019050818103600083015261280681612594565b9050919050565b60006020820190508181036000830152612826816125b7565b9050919050565b600060208201905061284260008301846125da565b92915050565b6000612852612863565b905061285e8282612db5565b919050565b6000604051905090565b600067ffffffffffffffff82111561288857612887612e73565b5b602082029050602081019050919050565b600067ffffffffffffffff8211156128b4576128b3612e73565b5b602082029050602081019050919050565b600067ffffffffffffffff8211156128e0576128df612e73565b5b6128e982612ea2565b9050602081019050919050565b600067ffffffffffffffff82111561291157612910612e73565b5b61291a82612ea2565b9050602081019050919050565b600081519050919050565b600081519050919050565b600082825260208201905092915050565b600082825260208201905092915050565b600061296a82612d0d565b915061297583612d0d565b9250817f7fffffffffffffffffffffffffffffffffffffffffffffffffffffffffffffff038313600083121516156129b0576129af612de6565b5b817f80000000000000000000000000000000000000000000000000000000000000000383126000831216156129e8576129e7612de6565b5b828201905092915050565b60006129fe82612d37565b9150612a0983612d37565b9250827fffffffffffffffffffffffffffffffffffffffffffffffffffffffffffffffff03821115612a3e57612a3d612de6565b5b828201905092915050565b6000612a5482612d0d565b9150612a5f83612d0d565b925082612a6f57612a6e612e15565b5b600160000383147f800000000000000000000000000000000000000000000000000000000000000083141615612aa857612aa7612de6565b5b828205905092915050565b6000612abe82612d37565b9150612ac983612d37565b925082612ad957612ad8612e15565b5b828204905092915050565b6000612aef82612d0d565b9150612afa83612d0d565b9250827f7fffffffffffffffffffffffffffffffffffffffffffffffffffffffffffffff0482116000841360008413161615612b3957612b38612de6565b5b817f80000000000000000000000000000000000000000000000000000000000000000583126000841260008413161615612b7657612b75612de6565b5b827f80000000000000000000000000000000000000000000000000000000000000000582126000841360008412161615612bb357612bb2612de6565b5b827f7fffffffffffffffffffffffffffffffffffffffffffffffffffffffffffffff0582126000841260008412161615612bf057612bef612de6565b5b828202905092915050565b6000612c0682612d0d565b9150612c1183612d0d565b9250827f800000000000000000000000000000000000000000000000000000000000000001821260008412151615612c4c57612c4b612de6565b5b827f7fffffffffffffffffffffffffffffffffffffffffffffffffffffffffffffff018213600084121615612c8457612c83612de6565b5b828203905092915050565b6000612c9a82612d37565b9150612ca583612d37565b925082821015612cb857612cb7612de6565b5b828203905092915050565b6000612cce82612d17565b9050919050565b60008115159050919050565b60007fffffffff0000000000000000000000000000000000000000000000000000000082169050919050565b6000819050919050565b600073ffffffffffffffffffffffffffffffffffffffff82169050919050565b6000819050919050565b82818337600083830152505050565b60005b83811015612d6e578082015181840152602081019050612d53565b83811115612d7d576000848401525b50505050565b60006002820490506001821680612d9b57607f821691505b60208210811415612daf57612dae612e44565b5b50919050565b612dbe82612ea2565b810181811067ffffffffffffffff82111715612ddd57612ddc612e73565b5b80604052505050565b7f4e487b7100000000000000000000000000000000000000000000000000000000600052601160045260246000fd5b7f4e487b7100000000000000000000000000000000000000000000000000000000600052601260045260246000fd5b7f4e487b7100000000000000000000000000000000000000000000000000000000600052602260045260246000fd5b7f4e487b7100000000000000000000000000000000000000000000000000000000600052604160045260246000fd5b6000601f19601f8301169050919050565b7f4552433732313a207472616e7366657220746f206e6f6e20455243373231526560008201527f63656976657220696d706c656d656e7465720000000000000000000000000000602082015250565b7f4f776e61626c653a206e6577206f776e657220697320746865207a65726f206160008201527f6464726573730000000000000000000000000000000000000000000000000000602082015250565b7f4552433732313a207472616e736665722066726f6d20696e636f72726563742060008201527f6f776e6572000000000000000000000000000000000000000000000000000000602082015250565b7f4552433732313a20746f6b656e20616c7265616479206d696e74656400000000600082015250565b7f4552433732313a207472616e7366657220746f20746865207a65726f2061646460008201527f7265737300000000000000000000000000000000000000000000000000000000602082015250565b7f4552433732313a20617070726f766520746f2063616c6c657200000000000000600082015250565b7f4552433732313a2061646472657373207a65726f206973206e6f74206120766160008201527f6c6964206f776e65720000000000000000000000000000000000000000000000602082015250565b7f4552433732313a20617070726f76652063616c6c6572206973206e6f7420746f60008201527f6b656e206f776e6572206e6f7220617070726f76656420666f7220616c6c0000602082015250565b7f4552433732313a206d696e7420746f20746865207a65726f2061646472657373600082015250565b7f4f776e61626c653a2063616c6c6572206973206e6f7420746865206f776e6572600082015250565b7f4552433732313a20696e76616c696420746f6b656e2049440000000000000000600082015250565b7f4552433732313a20617070726f76616c20746f2063757272656e74206f776e6560008201527f7200000000000000000000000000000000000000000000000000000000000000602082015250565b7f4552433732313a2063616c6c6572206973206e6f7420746f6b656e206f776e6560008201527f72206e6f7220617070726f766564000000000000000000000000000000000000602082015250565b61320181612cc3565b811461320c57600080fd5b50565b61321881612cd5565b811461322357600080fd5b50565b61322f81612ce1565b811461323a57600080fd5b50565b61324681612d37565b811461325157600080fd5b5056fea264697066735822122021652f337312ec7385bec139071870e9c2a85d63e15e6141b8ead6218a1231a264736f6c63430008040033",
  "linkReferences": {},
  "deployedLinkReferences": {}
}