{
  "_format": "hh-sol-artifact-1",
  "contractName": "FoodSourceFactory",
  "sourceName": "contracts/foodSourceFactory.sol",
  "abi": [
    {
      "inputs": [
        {
          "internalType": "address",
          "name": "_foodSourceContract",
          "type": "address"
        }
      ],
      "stateMutability": "nonpayable",
      "type": "constructor"
    },
    {
      "inputs": [
        {
          "internalType": "string[]",
          "name": "_uris",
          "type": "string[]"
        },
        {
          "internalType": "uint256[]",
          "name": "_validMonths",
          "type": "uint256[]"
        }
      ],
      "name": "createFoodSource",
      "outputs": [
        {
          "internalType": "uint256",
          "name": "foodId",
          "type": "uint256"
        }
      ],
      "stateMutability": "nonpayable",
      "type": "function"
    },
    {
      "inputs": [],
      "name": "getLastFSCounter",
      "outputs": [
        {
          "internalType": "uint256",
          "name": "",
          "type": "uint256"
        }
      ],
      "stateMutability": "view",
      "type": "function"
    },
    {
      "inputs": [],
      "name": "lastFSCounter",
      "outputs": [
        {
          "internalType": "uint256",
          "name": "",
          "type": "uint256"
        }
      ],
      "stateMutability": "view",
      "type": "function"
    }
  ],
  "bytecode": "0x608060405234801561001057600080fd5b5060405161093b38038061093b8339818101604052810190610032919061008d565b806000806101000a81548173ffffffffffffffffffffffffffffffffffffffff021916908373ffffffffffffffffffffffffffffffffffffffff160217905550506100ff565b600081519050610087816100e8565b92915050565b60006020828403121561009f57600080fd5b60006100ad84828501610078565b91505092915050565b60006100c1826100c8565b9050919050565b600073ffffffffffffffffffffffffffffffffffffffff82169050919050565b6100f1816100b6565b81146100fc57600080fd5b50565b61082d8061010e6000396000f3fe608060405234801561001057600080fd5b50600436106100415760003560e01c80633b9185ec14610046578063da008bfc14610076578063f537a18314610094575b600080fd5b610060600480360381019061005b919061035b565b6100b2565b60405161006d919061059a565b60405180910390f35b61007e610173565b60405161008b919061059a565b60405180910390f35b61009c61017d565b6040516100a9919061059a565b60405180910390f35b60008060009054906101000a900473ffffffffffffffffffffffffffffffffffffffff1673ffffffffffffffffffffffffffffffffffffffff16638a6054363085856040518463ffffffff1660e01b815260040161011293929190610555565b602060405180830381600087803b15801561012c57600080fd5b505af1158015610140573d6000803e3d6000fd5b505050506040513d601f19601f8201168201806040525081019061016491906103c7565b90508060018190555092915050565b6000600154905090565b60015481565b6000610196610191846105da565b6105b5565b905080838252602082019050828560208602820111156101b557600080fd5b60005b858110156101ff57813567ffffffffffffffff8111156101d757600080fd5b8086016101e48982610307565b855260208501945060208401935050506001810190506101b8565b5050509392505050565b600061021c61021784610606565b6105b5565b9050808382526020820190508285602086028201111561023b57600080fd5b60005b8581101561026b57816102518882610331565b84526020840193506020830192505060018101905061023e565b5050509392505050565b600061028861028384610632565b6105b5565b9050828152602081018484840111156102a057600080fd5b6102ab84828561072d565b509392505050565b600082601f8301126102c457600080fd5b81356102d4848260208601610183565b91505092915050565b600082601f8301126102ee57600080fd5b81356102fe848260208601610209565b91505092915050565b600082601f83011261031857600080fd5b8135610328848260208601610275565b91505092915050565b600081359050610340816107e0565b92915050565b600081519050610355816107e0565b92915050565b6000806040838503121561036e57600080fd5b600083013567ffffffffffffffff81111561038857600080fd5b610394858286016102b3565b925050602083013567ffffffffffffffff8111156103b157600080fd5b6103bd858286016102dd565b9150509250929050565b6000602082840312156103d957600080fd5b60006103e784828501610346565b91505092915050565b60006103fc83836104fe565b905092915050565b60006104108383610537565b60208301905092915050565b610425816106f1565b82525050565b600061043682610683565b61044081856106be565b93508360208202850161045285610663565b8060005b8581101561048e578484038952815161046f85826103f0565b945061047a836106a4565b925060208a01995050600181019050610456565b50829750879550505050505092915050565b60006104ab8261068e565b6104b581856106cf565b93506104c083610673565b8060005b838110156104f15781516104d88882610404565b97506104e3836106b1565b9250506001810190506104c4565b5085935050505092915050565b600061050982610699565b61051381856106e0565b935061052381856020860161073c565b61052c816107cf565b840191505092915050565b61054081610723565b82525050565b61054f81610723565b82525050565b600060608201905061056a600083018661041c565b818103602083015261057c818561042b565b9050818103604083015261059081846104a0565b9050949350505050565b60006020820190506105af6000830184610546565b92915050565b60006105bf6105d0565b90506105cb828261076f565b919050565b6000604051905090565b600067ffffffffffffffff8211156105f5576105f46107a0565b5b602082029050602081019050919050565b600067ffffffffffffffff821115610621576106206107a0565b5b602082029050602081019050919050565b600067ffffffffffffffff82111561064d5761064c6107a0565b5b610656826107cf565b9050602081019050919050565b6000819050602082019050919050565b6000819050602082019050919050565b600081519050919050565b600081519050919050565b600081519050919050565b6000602082019050919050565b6000602082019050919050565b600082825260208201905092915050565b600082825260208201905092915050565b600082825260208201905092915050565b60006106fc82610703565b9050919050565b600073ffffffffffffffffffffffffffffffffffffffff82169050919050565b6000819050919050565b82818337600083830152505050565b60005b8381101561075a57808201518184015260208101905061073f565b83811115610769576000848401525b50505050565b610778826107cf565b810181811067ffffffffffffffff82111715610797576107966107a0565b5b80604052505050565b7f4e487b7100000000000000000000000000000000000000000000000000000000600052604160045260246000fd5b6000601f19601f8301169050919050565b6107e981610723565b81146107f457600080fd5b5056fea26469706673582212202125e399ea2d4129c8b74d342609af8488e199b8b3bbd95919624ed20616e3d264736f6c63430008040033",
  "linkReferences": {},
  "deployedLinkReferences": {}
}